:1000000018C032C031C0DDC02FC02EC02EC02CC0E1
:100010002BC02AC029C028C027C026C025C024C0A4
:1000200023C079C3A9C3DCC316C44FC488C4C1C4E8
:100030000EC511241FBECFE5D2E0DEBFCDBF10E05C
:10004000A0E6B0E0EAE2FBE002C005900D92A03726
:10005000B107D9F720E0A0E7B0E001C01D92A938B0
:10006000B207E1F7E9D25FC5CBCF1F920F920FB66F
:100070000F9211242F938F939F9380917F009091E3
:10008000800001969093800080937F009091810082
:1000900080917E00981710F48EEF01C08FEF2091B1
:1000A000820090917E00291708F48D7F20918300B3
:1000B00090917E00291708F48B7F20918400909105
:1000C0007E00291708F4877F2091850090917E009B
:1000D000291708F48F7E2091860090917E002917C1
:1000E00008F48F7D2091870090917E00291708F4F5
:1000F0008F7B2091880090917E00291708F48F77DC
:100100008BBB80917E008B5F80937E0080917E0010
:10011000853618F081E080937E009F918F912F911A
:100120000F900FBE0F901F90189526B3247030E0EB
:1001300080916000909161002817390791F08091BB
:100140007F0090918000A0E0B0E0809372009093D7
:100150007300A0937400B093750010927100109218
:100160007000309361002093600080917F00909137
:100170008000A0E0B0E04091720050917300609167
:10018000740070917500841B950BA60BB70BC39779
:10019000A105B105A0F091E040917000509171006F
:1001A000452B09F090E081E0232B09F080E08923C2
:1001B00021E030E03093710020937000089580E0DA
:1001C00008951F920F920FB60F9211240F900FBE39
:1001D0000F901F901895CF93DF93CDB7DEB7C85916
:1001E000D1090FB6F894DEBF0FBECDBF10927D00CF
:1001F00010927A00FE01319688E9DF011D928A95FE
:10020000E9F70F2EF8ECCF2EF02DC98221EE2A83CC
:100210005EEE5B8380EA8C8333EF3D83B8EEBE8372
:10022000EFEEEF8394EF9887898746EE4A8749EE91
:100230004B87A2EFAC873D879E8779EC7C8B8D8BBB
:100240002E8B4F8B6DEE688F898F9A8FEB8F8C8FF3
:100250006D8F4E8F3F8F12EE18A365EE69A3BAA380
:100260002BA3F6EFFCA36DA37FA398A789A7F7EFB5
:10027000FAA72BA73CA78DA70F2EF4ECFF2EF02D8D
:10028000FEA60F2EFEECDF2EF02DDFA6F3EDF8AB71
:100290007AAF9BAF07EA0CAF3DAF8EAF2FAF219681
:1002A0008FAF219722969FAF22972396AFAF2397C8
:1002B00024962FAF24970F2EF0EFBF2EF02D25960A
:1002C000BFAE2597A1EA2696AFAF26970F2EFDEC7D
:1002D000EF2EF02D2E96EFAE2E9775EF2F967FAF67
:1002E0002F977CEE60967FAF609761969FAF619786
:1002F00062964FAF62976396BFAE639764962FAFD7
:10030000649765963FAF659766963FAF6697679629
:10031000AFAF6797A196CFAEA197A2962FAFA29746
:1003200033EEA3963FAFA3973BEEA4963FAFA497BF
:10033000A5968FAFA597A6969FAFA697A796BFAF96
:10034000A797A8966FAFA897A9968FAFA997B0ED7A
:10035000AA96BFAFAA97AB967FAFAB97AC962FAFDD
:10036000AC97AD965FAFAD97AE966FAFAE97AF96C9
:100370009FAFAF97E096AFAFE097E496FFAFE497FB
:1003800065ECE5966FAFE59724EDE6962FAFE6971F
:10039000E7966FAFE79763ECE8966FAFE897E9965B
:1003A0008FAFE99761ECEA966FAFEA97EB96FFAFF4
:1003B000EB97EC962FAFEC9722EDED962FAFED97E4
:1003C0002FECEE962FAFEE97EF96DFAEEF97C1587A
:1003D000DF4F2883CF57D040C058DF4FE882C05846
:1003E000D04029EDCF57DF4F2883C158D040CA579E
:1003F000DF4FF882C658D040C957DF4FE883C7584F
:10040000D040C857DF4F5883C858D040C757DF4F38
:100410000883C958D040C657DF4F9883CA58D04088
:10042000C557DF4F8883CB58D040C457DF4F188360
:10043000CC58D040C357DF4F7883CD58D040C257F7
:10044000DF4F4883CE58D040C157DF4F5883CF5835
:10045000D040C057DF4F3883C059D04007E010E08C
:100460000F2EF4E6FF2EF02DEE24E3945EDE8823BB
:1004700091F180917D0021E0280F20937D00109262
:100480007A0080917F009091800090937C0080930F
:100490007B001092760080917F0090918000909375
:1004A000790080937800E092650080E090E0FC01A4
:1004B000EF57FF4F1082019688309105C1F7822FC8
:1004C00090E02091620030E021503109281739076F
:1004D00014F410927D0020917F0030918000809173
:1004E0007B0090917C0088519C4F8217930708F005
:1004F00060C080917F009091800090937C008093F9
:100500007B0020917D0030E0A0917A00F901EE0F90
:10051000FF1FEE0FFF1FEE0FFF1FE20FF31FEE0F87
:10052000FF1FE20FF31F81E090E08C0F9D1FE80F8B
:10053000F91FEA0FF11D608170E087E090E0A801EB
:10054000481B590BFB0102C0F595E7954A95E2F768
:10055000E0FF05C0FC01EF57FF4FF08204C0FC0133
:10056000EF57FF4F1082019751F781E08A0F809378
:100570007A00F901EE0FFF1FEE0FFF1FEE0FFF1FB6
:10058000E20FF31FEE0FFF1F2E0F3F1FE1E0F0E021
:10059000EC0FFD1FE20FF31FDF010D900020E9F7C4
:1005A0001197AE1BBF0B90E0A817B90710F410927B
:1005B0007A0080917F0090918000209178003091A6
:1005C0007900821B930B20916300309164002817FF
:1005D000390708F04BCF80917F0090918000909375
:1005E00079008093780020917600422F50E080912E
:1005F0007D0090E0BC016F5F7F4F461757078CF47A
:1006000080917700811104C0E0927700C09A2ECFCC
:1006100010927700C098809176008F5F809376006B
:1006200025CF0296841795071CF4109276001ECFF2
:100630002F5F209376001ACF85B7877E806185BFB4
:100640008BB780628BBF80B5846080BD8FEF8ABB23
:10065000C29AB99AC09A1FBC1EBC1DBC1CBC8CE7B8
:1006600090E09BBD8ABD8EB588608EBD8EB58260E0
:100670008EBD619A789480E090E03FD280937D00B7
:1006800090916200981710F410927D00B09BA3DD4A
:10069000C09814E6C1E8D0E001E047DD882379F195
:1006A00080917D0021E0280F20937D0010927A0038
:1006B000009365001092760080917F0090918000F9
:1006C000909379008093780080E090E0FC01EF57F0
:1006D000FF4F1082019688309105C1F7822F90E07C
:1006E0002091620030E0215031092817390714F4B5
:1006F00010927D0060917D0080E090E006D2E09154
:100700007D008E2F90E08830910508F0AAC1FC0191
:10071000EF5EFF4F099420917F003091800080911F
:100720007B0090917C00281B390B80916E0090E03B
:100730008217930708F095C180917F009091800007
:1007400090937C0080937B0080917A00883030F415
:10075000E82FF0E0EF57FF4F108305C0E82FF0E0DF
:10076000E758FF4F10828F5F813118F480937A0031
:1007700078C110927A0075C120917F00309180007D
:1007800080917B0090917C00281B390B80916F0039
:1007900090E08217930708F064C180917F009091E8
:1007A000800090937C0080937B0080917A00282FBA
:1007B00030E0F901EF57FF4F1083811104C01F8211
:1007C00000937A004EC1F901E058FF4F10828F5F0D
:1007D000883018F480937A0044C110927A0041C1A5
:1007E00020917F003091800080917B0090917C006F
:1007F000281B390B80916D0090E08217930708F059
:1008000030C180917F009091800090937C00809314
:100810007B0020917A0021110BC080E090E0FC0168
:10082000EF57FF4F1083019688309105C1F75CC1E7
:1008300080E090E0FC01EF57FF4F10820196883076
:100840009105C1F72F5F223018F420937A0009C177
:1008500010927A0006C120917F0030918000809133
:100860007B0090917C00281B390B80916C0090E0FC
:100870008217930708F0F5C080917F009091800067
:1008800090937C0080937B0020917A0080E090E040
:10089000FC01EF57FF4F2083019688309105C1F787
:1008A00080916500882349F02F5F20937A002436D9
:1008B00008F4D7C010926500D4C0215020937A006C
:1008C0002111CFC000936500CCC080917F00909132
:1008D000800020917B0030917C00821B930B209143
:1008E0006A0030916B002817390708F0BAC0809170
:1008F0007F009091800090937C0080937B0080919A
:100900007A0081110BC0188319831A831B831C8200
:100910001D821E821F8200937A00A3C01882198252
:100920001A821B821C831D831E831F838F5F82306C
:1009300018F480937A0095C010927A0092C080914A
:100940007F009091800020917B0030917C00821B81
:10095000930B20916800309169002817390708F03F
:1009600080C080917F009091800090937C00809364
:100970007B0080917A0081110BC0188319821A8341
:100980001B821C831D821E831F8200937A0069C014
:10099000188219831A821B831C821D831E821F8367
:1009A0008F5F823018F480937A005BC010927A00D7
:1009B00058C080917F009091800020917B00309101
:1009C0007C00821B930B20916600309167002817F2
:1009D000390708F046C080917F0090918000909385
:1009E0007C0080937B0080917A00811109C018837C
:1009F00019821A821B821C831D821E821F8277C06D
:100A0000813049F4188219831A821B821C821D834B
:100A10001E821F826CC0823049F4188219821A83A8
:100A20001B821C821D821E831F8261C01882198254
:100A30001A821B831C821D821E821F838F5F84305B
:100A400018F480937A000DC010927A000AC080E0FA
:100A500090E0FC01EF57FF4F10830196883091051D
:100A6000C1F780917F0090918000209178003091B3
:100A70007900821B930B209163003091640028174A
:100A8000390708F00ACE80917F0090918000909302
:100A900079008093780020917600422F50E0809179
:100AA0007D0090E0BC016F5F7F4F461757078CF4C5
:100AB00080917700811104C000937700C09AEDCD3A
:100AC00010927700C098809176008F5F80937600B7
:100AD000E4CD0296841795071CF410927600DDCDC4
:100AE0002F5F20937600D9CD00937A00BACF809102
:100AF0007A008F5F80937A00B4CFE199FECF9FBBDD
:100B00008EBBE09A99278DB30895262FE199FECFE9
:100B10001CBA9FBB8EBB2DBB0FB6F894E29AE19A2C
:100B20000FBE01960895F894FFCF040008E8030172
:100B30006400F401F4010A643232FFFFFFFFFFFF9B
:100B4000FFFFFFFFFFFFFFFFFFFFFFFFFFFFFFFFB5
:100B5000FFFFFFFFFFFFFFFFFFFFFFFFFFFFFFFFA5
:100B6000FFFFFFFFFFFFFFFFFFFFFFFFFFFFFFFF95
:100B7000FFFFFFFFFFFFFFFFFFFFFFFFFFFFFFFF85
:00000001FF
